{
  "contractName": "Adoption",
  "abi": [
    {
      "constant": true,
      "inputs": [
        {
          "name": "",
          "type": "address"
        }
      ],
      "name": "Mans4",
      "outputs": [
        {
          "name": "s",
          "type": "string"
        }
      ],
      "payable": false,
      "stateMutability": "view",
      "type": "function"
    },
    {
      "constant": true,
      "inputs": [
        {
          "name": "",
          "type": "address"
        }
      ],
      "name": "Mans",
      "outputs": [
        {
          "name": "f_name",
          "type": "string"
        },
        {
          "name": "l_name",
          "type": "string"
        },
        {
          "name": "email",
          "type": "string"
        }
      ],
      "payable": false,
      "stateMutability": "view",
      "type": "function"
    },
    {
      "constant": true,
      "inputs": [
        {
          "name": "",
          "type": "uint256"
        }
      ],
      "name": "ManAccts",
      "outputs": [
        {
          "name": "",
          "type": "address"
        }
      ],
      "payable": false,
      "stateMutability": "view",
      "type": "function"
    },
    {
      "constant": true,
      "inputs": [
        {
          "name": "",
          "type": "address"
        }
      ],
      "name": "voters",
      "outputs": [
        {
          "name": "",
          "type": "bool"
        }
      ],
      "payable": false,
      "stateMutability": "view",
      "type": "function"
    },
    {
      "constant": true,
      "inputs": [
        {
          "name": "",
          "type": "address"
        }
      ],
      "name": "Mans3",
      "outputs": [
        {
          "name": "state",
          "type": "string"
        },
        {
          "name": "city",
          "type": "string"
        },
        {
          "name": "country",
          "type": "string"
        },
        {
          "name": "home_address",
          "type": "string"
        },
        {
          "name": "current_address",
          "type": "string"
        },
        {
          "name": "phone_no",
          "type": "string"
        }
      ],
      "payable": false,
      "stateMutability": "view",
      "type": "function"
    },
    {
      "constant": true,
      "inputs": [
        {
          "name": "",
          "type": "address"
        }
      ],
      "name": "Mans2",
      "outputs": [
        {
          "name": "b_day",
          "type": "string"
        },
        {
          "name": "gender",
          "type": "string"
        },
        {
          "name": "occupation",
          "type": "string"
        },
        {
          "name": "blood_group",
          "type": "string"
        },
        {
          "name": "marital_status",
          "type": "string"
        }
      ],
      "payable": false,
      "stateMutability": "view",
      "type": "function"
    },
    {
      "constant": false,
      "inputs": [
        {
          "name": "_address",
          "type": "address"
        },
        {
          "name": "_s",
          "type": "string"
        }
      ],
      "name": "symtoms",
      "outputs": [],
      "payable": false,
      "stateMutability": "nonpayable",
      "type": "function"
    },
    {
      "constant": false,
      "inputs": [
        {
          "name": "_address",
          "type": "address"
        },
        {
          "name": "_f_name",
          "type": "string"
        },
        {
          "name": "_l_name",
          "type": "string"
        },
        {
          "name": "_email",
          "type": "string"
        }
      ],
      "name": "basic_details",
      "outputs": [],
      "payable": false,
      "stateMutability": "nonpayable",
      "type": "function"
    },
    {
      "constant": false,
      "inputs": [
        {
          "name": "_address",
          "type": "address"
        },
        {
          "name": "_b_day",
          "type": "string"
        },
        {
          "name": "_gender",
          "type": "string"
        },
        {
          "name": "_occupation",
          "type": "string"
        },
        {
          "name": "_blood_group",
          "type": "string"
        },
        {
          "name": "_marital_status",
          "type": "string"
        }
      ],
      "name": "personal_details",
      "outputs": [],
      "payable": false,
      "stateMutability": "nonpayable",
      "type": "function"
    },
    {
      "constant": false,
      "inputs": [
        {
          "name": "_address",
          "type": "address"
        },
        {
          "name": "_home_address",
          "type": "string"
        },
        {
          "name": "_current_address",
          "type": "string"
        },
        {
          "name": "_country",
          "type": "string"
        },
        {
          "name": "_state",
          "type": "string"
        },
        {
          "name": "_city",
          "type": "string"
        },
        {
          "name": "_phone_no",
          "type": "string"
        }
      ],
      "name": "contact_details",
      "outputs": [],
      "payable": false,
      "stateMutability": "nonpayable",
      "type": "function"
    },
    {
      "constant": true,
      "inputs": [
        {
          "name": "_address",
          "type": "address"
        }
      ],
      "name": "getstring",
      "outputs": [
        {
          "name": "",
          "type": "string"
        }
      ],
      "payable": false,
      "stateMutability": "view",
      "type": "function"
    },
    {
      "constant": true,
      "inputs": [],
      "name": "getAccount",
      "outputs": [
        {
          "name": "",
          "type": "address[]"
        }
      ],
      "payable": false,
      "stateMutability": "view",
      "type": "function"
    }
  ],
  "bytecode": "0x6060604052341561000f57600080fd5b6117e38061001e6000396000f3006060604052600436106100ba576000357c0100000000000000000000000000000000000000000000000000000000900463ffffffff1680632568064d146100bf578063262be0651461028a578063830c0c871461033c57806397bd94081461040b57806398f27e45146105935780639d129cf414610774578063a3ec138d146107d7578063adf52e1514610828578063c957a64e14610ba4578063db613e8114610c20578063e3196f8a14610c8a578063f195e5b414610d8c575b600080fd5b34156100ca57600080fd5b610288600480803573ffffffffffffffffffffffffffffffffffffffff1690602001909190803590602001908201803590602001908080601f0160208091040260200160405190810160405280939291908181526020018383808284378201915050505050509190803590602001908201803590602001908080601f0160208091040260200160405190810160405280939291908181526020018383808284378201915050505050509190803590602001908201803590602001908080601f0160208091040260200160405190810160405280939291908181526020018383808284378201915050505050509190803590602001908201803590602001908080601f0160208091040260200160405190810160405280939291908181526020018383808284378201915050505050509190803590602001908201803590602001908080601f0160208091040260200160405190810160405280939291908181526020018383808284378201915050505050509190803590602001908201803590602001908080601f0160208091040260200160405190810160405280939291908181526020018383808284378201915050505050509190505061107f565b005b341561029557600080fd5b6102c1600480803573ffffffffffffffffffffffffffffffffffffffff16906020019091905050611162565b6040518080602001828103825283818151815260200191508051906020019080838360005b838110156103015780820151818401526020810190506102e6565b50505050905090810190601f16801561032e5780820380516001836020036101000a031916815260200191505b509250505060405180910390f35b341561034757600080fd5b610373600480803573ffffffffffffffffffffffffffffffffffffffff1690602001909190505061124c565b60405180806020018281038252838181546001816001161561010002031660029004815260200191508054600181600116156101000203166002900480156103fc5780601f106103d1576101008083540402835291602001916103fc565b820191906000526020600020905b8154815290600101906020018083116103df57829003601f168201915b50509250505060405180910390f35b341561041657600080fd5b610591600480803573ffffffffffffffffffffffffffffffffffffffff1690602001909190803590602001908201803590602001908080601f0160208091040260200160405190810160405280939291908181526020018383808284378201915050505050509190803590602001908201803590602001908080601f0160208091040260200160405190810160405280939291908181526020018383808284378201915050505050509190803590602001908201803590602001908080601f0160208091040260200160405190810160405280939291908181526020018383808284378201915050505050509190803590602001908201803590602001908080601f0160208091040260200160405190810160405280939291908181526020018383808284378201915050505050509190803590602001908201803590602001908080601f01602080910402602001604051908101604052809392919081815260200183838082843782019150505050505091905050611269565b005b341561059e57600080fd5b6105ca600480803573ffffffffffffffffffffffffffffffffffffffff16906020019091905050611332565b6040518080602001806020018060200184810384528781815460018160011615610100020316600290048152602001915080546001816001161561010002031660029004801561065b5780601f106106305761010080835404028352916020019161065b565b820191906000526020600020905b81548152906001019060200180831161063e57829003601f168201915b50508481038352868181546001816001161561010002031660029004815260200191508054600181600116156101000203166002900480156106de5780601f106106b3576101008083540402835291602001916106de565b820191906000526020600020905b8154815290600101906020018083116106c157829003601f168201915b50508481038252858181546001816001161561010002031660029004815260200191508054600181600116156101000203166002900480156107615780601f1061073657610100808354040283529160200191610761565b820191906000526020600020905b81548152906001019060200180831161074457829003601f168201915b5050965050505050505060405180910390f35b341561077f57600080fd5b6107956004808035906020019091905050611359565b604051808273ffffffffffffffffffffffffffffffffffffffff1673ffffffffffffffffffffffffffffffffffffffff16815260200191505060405180910390f35b34156107e257600080fd5b61080e600480803573ffffffffffffffffffffffffffffffffffffffff16906020019091905050611398565b604051808215151515815260200191505060405180910390f35b341561083357600080fd5b61085f600480803573ffffffffffffffffffffffffffffffffffffffff169060200190919050506113b8565b6040518080602001806020018060200180602001806020018060200187810387528d8181546001816001161561010002031660029004815260200191508054600181600116156101000203166002900480156108fc5780601f106108d1576101008083540402835291602001916108fc565b820191906000526020600020905b8154815290600101906020018083116108df57829003601f168201915b505087810386528c81815460018160011615610100020316600290048152602001915080546001816001161561010002031660029004801561097f5780601f106109545761010080835404028352916020019161097f565b820191906000526020600020905b81548152906001019060200180831161096257829003601f168201915b505087810385528b818154600181600116156101000203166002900481526020019150805460018160011615610100020316600290048015610a025780601f106109d757610100808354040283529160200191610a02565b820191906000526020600020905b8154815290600101906020018083116109e557829003601f168201915b505087810384528a818154600181600116156101000203166002900481526020019150805460018160011615610100020316600290048015610a855780601f10610a5a57610100808354040283529160200191610a85565b820191906000526020600020905b815481529060010190602001808311610a6857829003601f168201915b5050878103835289818154600181600116156101000203166002900481526020019150805460018160011615610100020316600290048015610b085780601f10610add57610100808354040283529160200191610b08565b820191906000526020600020905b815481529060010190602001808311610aeb57829003601f168201915b5050878103825288818154600181600116156101000203166002900481526020019150805460018160011615610100020316600290048015610b8b5780601f10610b6057610100808354040283529160200191610b8b565b820191906000526020600020905b815481529060010190602001808311610b6e57829003601f168201915b50509c5050505050505050505050505060405180910390f35b3415610baf57600080fd5b610c1e600480803573ffffffffffffffffffffffffffffffffffffffff1690602001909190803590602001908201803590602001908080601f016020809104026020016040519081016040528093929190818152602001838380828437820191505050505050919050506113ee565b005b3415610c2b57600080fd5b610c3361144f565b6040518080602001828103825283818151815260200191508051906020019060200280838360005b83811015610c76578082015181840152602081019050610c5b565b505050509050019250505060405180910390f35b3415610c9557600080fd5b610d8a600480803573ffffffffffffffffffffffffffffffffffffffff1690602001909190803590602001908201803590602001908080601f0160208091040260200160405190810160405280939291908181526020018383808284378201915050505050509190803590602001908201803590602001908080601f0160208091040260200160405190810160405280939291908181526020018383808284378201915050505050509190803590602001908201803590602001908080601f016020809104026020016040519081016040528093929190818152602001838380828437820191505050505050919050506114e3565b005b3415610d9757600080fd5b610dc3600480803573ffffffffffffffffffffffffffffffffffffffff1690602001909190505061168d565b60405180806020018060200180602001806020018060200186810386528b818154600181600116156101000203166002900481526020019150805460018160011615610100020316600290048015610e5c5780601f10610e3157610100808354040283529160200191610e5c565b820191906000526020600020905b815481529060010190602001808311610e3f57829003601f168201915b505086810385528a818154600181600116156101000203166002900481526020019150805460018160011615610100020316600290048015610edf5780601f10610eb457610100808354040283529160200191610edf565b820191906000526020600020905b815481529060010190602001808311610ec257829003601f168201915b5050868103845289818154600181600116156101000203166002900481526020019150805460018160011615610100020316600290048015610f625780601f10610f3757610100808354040283529160200191610f62565b820191906000526020600020905b815481529060010190602001808311610f4557829003601f168201915b5050868103835288818154600181600116156101000203166002900481526020019150805460018160011615610100020316600290048015610fe55780601f10610fba57610100808354040283529160200191610fe5565b820191906000526020600020905b815481529060010190602001808311610fc857829003601f168201915b50508681038252878181546001816001161561010002031660029004815260200191508054600181600116156101000203166002900480156110685780601f1061103d57610100808354040283529160200191611068565b820191906000526020600020905b81548152906001019060200180831161104b57829003601f168201915b50509a505050505050505050505060405180910390f35b6000600360008973ffffffffffffffffffffffffffffffffffffffff1673ffffffffffffffffffffffffffffffffffffffff1681526020019081526020016000209050868160030190805190602001906110da9291906116be565b50858160040190805190602001906110f39291906116be565b508481600201908051906020019061110c9291906116be565b50838160000190805190602001906111259291906116be565b508281600101908051906020019061113e9291906116be565b50818160050190805190602001906111579291906116be565b505050505050505050565b61116a61173e565b600560008373ffffffffffffffffffffffffffffffffffffffff1673ffffffffffffffffffffffffffffffffffffffff1681526020019081526020016000206000018054600181600116156101000203166002900480601f0160208091040260200160405190810160405280929190818152602001828054600181600116156101000203166002900480156112405780601f1061121557610100808354040283529160200191611240565b820191906000526020600020905b81548152906001019060200180831161122357829003601f168201915b50505050509050919050565b600560205280600052604060002060009150905080600001905081565b6000600260008873ffffffffffffffffffffffffffffffffffffffff1673ffffffffffffffffffffffffffffffffffffffff1681526020019081526020016000209050858160000190805190602001906112c49291906116be565b50848160010190805190602001906112dd9291906116be565b50838160020190805190602001906112f69291906116be565b508281600301908051906020019061130f9291906116be565b50818160040190805190602001906113289291906116be565b5050505050505050565b60006020528060005260406000206000915090508060000190806001019080600201905083565b60018181548110151561136857fe5b90600052602060002090016000915054906101000a900473ffffffffffffffffffffffffffffffffffffffff1681565b60046020528060005260406000206000915054906101000a900460ff1681565b60036020528060005260406000206000915090508060000190806001019080600201908060030190806004019080600501905086565b6000600560008473ffffffffffffffffffffffffffffffffffffffff1673ffffffffffffffffffffffffffffffffffffffff1681526020019081526020016000209050818160000190805190602001906114499291906116be565b50505050565b611457611752565b60018054806020026020016040519081016040528092919081815260200182805480156114d957602002820191906000526020600020905b8160009054906101000a900473ffffffffffffffffffffffffffffffffffffffff1673ffffffffffffffffffffffffffffffffffffffff168152602001906001019080831161148f575b5050505050905090565b6000600460008673ffffffffffffffffffffffffffffffffffffffff1673ffffffffffffffffffffffffffffffffffffffff16815260200190815260200160002060009054906101000a900460ff1615151561153e57600080fd5b6001600460008773ffffffffffffffffffffffffffffffffffffffff1673ffffffffffffffffffffffffffffffffffffffff16815260200190815260200160002060006101000a81548160ff0219169083151502179055506000808673ffffffffffffffffffffffffffffffffffffffff1673ffffffffffffffffffffffffffffffffffffffff1681526020019081526020016000209050838160000190805190602001906115ee9291906116be565b50828160010190805190602001906116079291906116be565b50818160020190805190602001906116209291906116be565b5060018080548060010182816116369190611766565b9160005260206000209001600088909190916101000a81548173ffffffffffffffffffffffffffffffffffffffff021916908373ffffffffffffffffffffffffffffffffffffffff16021790555050505050505050565b6002602052806000526040600020600091509050806000019080600101908060020190806003019080600401905085565b828054600181600116156101000203166002900490600052602060002090601f016020900481019282601f106116ff57805160ff191683800117855561172d565b8280016001018555821561172d579182015b8281111561172c578251825591602001919060010190611711565b5b50905061173a9190611792565b5090565b602060405190810160405280600081525090565b602060405190810160405280600081525090565b81548183558181151161178d5781836000526020600020918201910161178c9190611792565b5b505050565b6117b491905b808211156117b0576000816000905550600101611798565b5090565b905600a165627a7a72305820711c8dd6b6ed1fbee995ba5dcf157030d458928874d6f4886d84d8fa454697c30029",
  "source": "pragma solidity ^0.4.2;\n\n\ncontract Adoption {\n\n    struct Man {\n\n        string f_name;\n        string l_name;\n        string email;\n    }\n\n    struct Man2 {\n        string b_day;\n        string gender;\n        string occupation;\n        string blood_group;\n        string marital_status;\n    }\n\n    struct Man3 {\n        string state;\n        string city;\n        string country;\n        string home_address;\n        string current_address;\n        string phone_no;\n    }\n\n    struct Man4 {\n        string s;\n    }\n\n    mapping (address => Man) public Mans;\n    address[] public ManAccts;\n\n    mapping (address => Man2) public Mans2;\n\n    mapping (address => Man3) public Mans3;\n\n    mapping (address => bool) public voters;\n\n    mapping (address => Man4) public Mans4;\n\n    function symtoms(address _address, string _s) {\n\n      var man = Mans4[_address];\n\n      man.s = _s;\n\n      \n    }\n\n    function basic_details(address _address, string _f_name, string _l_name, string _email) public {\n\n      require(!voters[_address]);\n      voters[_address] = true;\n\n      var man = Mans[_address];\n\n      man.f_name = _f_name;\n      man.l_name = _l_name;\n      man.email = _email;\n\n\n      ManAccts.push(_address)-1;\n    }\n\n    function personal_details(address _address, string _b_day, string _gender, string _occupation, string _blood_group, string _marital_status) public {\n      var man =Mans2[_address];\n\n      man.b_day= _b_day;\n      man.gender= _gender;\n      man.occupation = _occupation;\n      man.blood_group = _blood_group;\n      man.marital_status = _marital_status;\n\n\n    }\n\n    function contact_details(address _address, string _home_address, string _current_address, string _country, string _state, string _city, string _phone_no) public {\n      var man = Mans3[_address];\n\n      man.home_address = _home_address;\n      man.current_address = _current_address;\n      man.country = _country;\n      man.state = _state;\n      man.city = _city;\n      man.phone_no = _phone_no;\n\n\n\n    }\n\n    function getstring(address _address) view public returns (string) {\n\n      return (Mans4[_address].s);\n\n    }\n    function getAccount() view public returns (address[])\n    {\n      return ManAccts;\n    }\n}\n",
  "sourcePath": "F:\\medikeep-master\\contracts\\Adoption.sol",
  "compiler": {
    "name": "solc",
    "version": "0.4.19+commit.c4cbbb05.Emscripten.clang"
  },
  "schemaVersion": "2.0.0",
  "updatedAt": "2018-03-31T12:47:42.754Z"
}