{
  "contractName": "Adoption",
  "abi": [
    {
      "constant": true,
      "inputs": [
        {
          "name": "",
          "type": "address"
        }
      ],
      "name": "Pat",
      "outputs": [
        {
          "name": "",
          "type": "bool"
        }
      ],
      "payable": false,
      "stateMutability": "view",
      "type": "function"
    },
    {
      "constant": true,
      "inputs": [
        {
          "name": "",
          "type": "address"
        }
      ],
      "name": "Mans",
      "outputs": [
        {
          "name": "f_name",
          "type": "string"
        },
        {
          "name": "l_name",
          "type": "string"
        },
        {
          "name": "email",
          "type": "string"
        }
      ],
      "payable": false,
      "stateMutability": "view",
      "type": "function"
    },
    {
      "constant": true,
      "inputs": [
        {
          "name": "",
          "type": "uint256"
        }
      ],
      "name": "ManAccts",
      "outputs": [
        {
          "name": "",
          "type": "address"
        }
      ],
      "payable": false,
      "stateMutability": "view",
      "type": "function"
    },
    {
      "constant": true,
      "inputs": [
        {
          "name": "",
          "type": "address"
        }
      ],
      "name": "Mans3",
      "outputs": [
        {
          "name": "state",
          "type": "string"
        },
        {
          "name": "city",
          "type": "string"
        },
        {
          "name": "country",
          "type": "string"
        },
        {
          "name": "home_address",
          "type": "string"
        },
        {
          "name": "current_address",
          "type": "string"
        },
        {
          "name": "phone_no",
          "type": "string"
        }
      ],
      "payable": false,
      "stateMutability": "view",
      "type": "function"
    },
    {
      "constant": true,
      "inputs": [
        {
          "name": "",
          "type": "address"
        }
      ],
      "name": "Mans2",
      "outputs": [
        {
          "name": "b_day",
          "type": "string"
        },
        {
          "name": "gender",
          "type": "string"
        },
        {
          "name": "occupation",
          "type": "string"
        },
        {
          "name": "blood_group",
          "type": "string"
        },
        {
          "name": "marital_status",
          "type": "string"
        }
      ],
      "payable": false,
      "stateMutability": "view",
      "type": "function"
    },
    {
      "constant": false,
      "inputs": [
        {
          "name": "_address",
          "type": "address"
        },
        {
          "name": "_f_name",
          "type": "string"
        },
        {
          "name": "_l_name",
          "type": "string"
        },
        {
          "name": "_email",
          "type": "string"
        }
      ],
      "name": "basic_details",
      "outputs": [],
      "payable": false,
      "stateMutability": "nonpayable",
      "type": "function"
    }
  ],
  "bytecode": "0x6060604052341561000f57600080fd5b610dbf8061001e6000396000f300606060405260043610610078576000357c0100000000000000000000000000000000000000000000000000000000900463ffffffff1680635b12469e1461007d57806398f27e45146100ce5780639d129cf4146102af578063adf52e1514610312578063e3196f8a1461068e578063f195e5b414610790575b600080fd5b341561008857600080fd5b6100b4600480803573ffffffffffffffffffffffffffffffffffffffff16906020019091905050610a83565b604051808215151515815260200191505060405180910390f35b34156100d957600080fd5b610105600480803573ffffffffffffffffffffffffffffffffffffffff16906020019091905050610aa3565b604051808060200180602001806020018481038452878181546001816001161561010002031660029004815260200191508054600181600116156101000203166002900480156101965780601f1061016b57610100808354040283529160200191610196565b820191906000526020600020905b81548152906001019060200180831161017957829003601f168201915b50508481038352868181546001816001161561010002031660029004815260200191508054600181600116156101000203166002900480156102195780601f106101ee57610100808354040283529160200191610219565b820191906000526020600020905b8154815290600101906020018083116101fc57829003601f168201915b505084810382528581815460018160011615610100020316600290048152602001915080546001816001161561010002031660029004801561029c5780601f106102715761010080835404028352916020019161029c565b820191906000526020600020905b81548152906001019060200180831161027f57829003601f168201915b5050965050505050505060405180910390f35b34156102ba57600080fd5b6102d06004808035906020019091905050610aca565b604051808273ffffffffffffffffffffffffffffffffffffffff1673ffffffffffffffffffffffffffffffffffffffff16815260200191505060405180910390f35b341561031d57600080fd5b610349600480803573ffffffffffffffffffffffffffffffffffffffff16906020019091905050610b09565b6040518080602001806020018060200180602001806020018060200187810387528d8181546001816001161561010002031660029004815260200191508054600181600116156101000203166002900480156103e65780601f106103bb576101008083540402835291602001916103e6565b820191906000526020600020905b8154815290600101906020018083116103c957829003601f168201915b505087810386528c8181546001816001161561010002031660029004815260200191508054600181600116156101000203166002900480156104695780601f1061043e57610100808354040283529160200191610469565b820191906000526020600020905b81548152906001019060200180831161044c57829003601f168201915b505087810385528b8181546001816001161561010002031660029004815260200191508054600181600116156101000203166002900480156104ec5780601f106104c1576101008083540402835291602001916104ec565b820191906000526020600020905b8154815290600101906020018083116104cf57829003601f168201915b505087810384528a81815460018160011615610100020316600290048152602001915080546001816001161561010002031660029004801561056f5780601f106105445761010080835404028352916020019161056f565b820191906000526020600020905b81548152906001019060200180831161055257829003601f168201915b50508781038352898181546001816001161561010002031660029004815260200191508054600181600116156101000203166002900480156105f25780601f106105c7576101008083540402835291602001916105f2565b820191906000526020600020905b8154815290600101906020018083116105d557829003601f168201915b50508781038252888181546001816001161561010002031660029004815260200191508054600181600116156101000203166002900480156106755780601f1061064a57610100808354040283529160200191610675565b820191906000526020600020905b81548152906001019060200180831161065857829003601f168201915b50509c5050505050505050505050505060405180910390f35b341561069957600080fd5b61078e600480803573ffffffffffffffffffffffffffffffffffffffff1690602001909190803590602001908201803590602001908080601f0160208091040260200160405190810160405280939291908181526020018383808284378201915050505050509190803590602001908201803590602001908080601f0160208091040260200160405190810160405280939291908181526020018383808284378201915050505050509190803590602001908201803590602001908080601f01602080910402602001604051908101604052809392919081815260200183838082843782019150505050505091905050610b3f565b005b341561079b57600080fd5b6107c7600480803573ffffffffffffffffffffffffffffffffffffffff16906020019091905050610c91565b60405180806020018060200180602001806020018060200186810386528b8181546001816001161561010002031660029004815260200191508054600181600116156101000203166002900480156108605780601f1061083557610100808354040283529160200191610860565b820191906000526020600020905b81548152906001019060200180831161084357829003601f168201915b505086810385528a8181546001816001161561010002031660029004815260200191508054600181600116156101000203166002900480156108e35780601f106108b8576101008083540402835291602001916108e3565b820191906000526020600020905b8154815290600101906020018083116108c657829003601f168201915b50508681038452898181546001816001161561010002031660029004815260200191508054600181600116156101000203166002900480156109665780601f1061093b57610100808354040283529160200191610966565b820191906000526020600020905b81548152906001019060200180831161094957829003601f168201915b50508681038352888181546001816001161561010002031660029004815260200191508054600181600116156101000203166002900480156109e95780601f106109be576101008083540402835291602001916109e9565b820191906000526020600020905b8154815290600101906020018083116109cc57829003601f168201915b5050868103825287818154600181600116156101000203166002900481526020019150805460018160011615610100020316600290048015610a6c5780601f10610a4157610100808354040283529160200191610a6c565b820191906000526020600020905b815481529060010190602001808311610a4f57829003601f168201915b50509a505050505050505050505060405180910390f35b60026020528060005260406000206000915054906101000a900460ff1681565b60006020528060005260406000206000915090508060000190806001019080600201905083565b600181815481101515610ad957fe5b90600052602060002090016000915054906101000a900473ffffffffffffffffffffffffffffffffffffffff1681565b60046020528060005260406000206000915090508060000190806001019080600201908060030190806004019080600501905086565b6000600260003373ffffffffffffffffffffffffffffffffffffffff1673ffffffffffffffffffffffffffffffffffffffff16815260200190815260200160002060009054906101000a900460ff16151515610b9a57600080fd5b6000808673ffffffffffffffffffffffffffffffffffffffff1673ffffffffffffffffffffffffffffffffffffffff168152602001908152602001600020905083816000019080519060200190610bf2929190610cc2565b5082816001019080519060200190610c0b929190610cc2565b5081816002019080519060200190610c24929190610cc2565b506001808054806001018281610c3a9190610d42565b9160005260206000209001600088909190916101000a81548173ffffffffffffffffffffffffffffffffffffffff021916908373ffffffffffffffffffffffffffffffffffffffff16021790555050505050505050565b6003602052806000526040600020600091509050806000019080600101908060020190806003019080600401905085565b828054600181600116156101000203166002900490600052602060002090601f016020900481019282601f10610d0357805160ff1916838001178555610d31565b82800160010185558215610d31579182015b82811115610d30578251825591602001919060010190610d15565b5b509050610d3e9190610d6e565b5090565b815481835581811511610d6957818360005260206000209182019101610d689190610d6e565b5b505050565b610d9091905b80821115610d8c576000816000905550600101610d74565b5090565b905600a165627a7a72305820bb0a98f291363ab23435835a087633cf33cd781ce0570ee4af163359dffd3ba20029",
  "source": "pragma solidity ^0.4.2;\r\n\r\n\r\ncontract Adoption {\r\n\r\n    struct Man {\r\n\r\n       // string hashcode;\r\n        //string id;\r\n        string f_name;\r\n        string l_name;\r\n        string email;\r\n        }\r\n    struct Man2{\r\n        string b_day;\r\n        string gender;\r\n        string occupation;\r\n        string blood_group;\r\n        string marital_status;\r\n        }\r\n    struct Man3{\r\n        string state;\r\n        string city;\r\n        string country;\r\n        string home_address;\r\n        string current_address;\r\n        string phone_no;\r\n    }\r\n\r\n    mapping (address => Man) public Mans;\r\n    address[] public ManAccts;\r\n    //uint public count = 3;\r\n\r\n    mapping (address => bool) public Pat;\r\n\r\n   // mapping (address => Man4) public Mans4;\r\n\r\n    mapping (address => Man2) public Mans2;\r\n\r\n    mapping (address => Man3) public Mans3;\r\n\r\n    function basic_details(address _address, string _f_name, string _l_name, string _email)public {\r\n\r\n      require(!Pat[msg.sender]);\r\n\r\n      var man = Mans[_address];\r\n\r\n      man.f_name = _f_name;\r\n      man.l_name = _l_name;\r\n      man.email = _email;\r\n\r\n      ManAccts.push(_address)-1;\r\n    }\r\n/*    function personal_details(address _address, string _b_day, string _gender, string _occupation, string _blood_group, string _marital_status)public{\r\n      var man =Mans2[_address];\r\n\r\n      man.b_day= _b_day;\r\n      man.gender= _gender;\r\n      man.occupation = _occupation;\r\n      man.blood_group = _blood_group;\r\n      man.marital_status = _marital_status;\r\n\r\n      ManAccts.push(_address)-1;\r\n    }\r\n\r\n    function contact_details(address _address, string _home_address, string _current_address, string _country, string _state, string _city, string _phone_no)public{\r\n      var man = Mans3[_address];\r\n\r\n      man.home_address = _home_address;\r\n      man.current_address = _current_address;\r\n      man.country = _country;\r\n      man.state = _state;\r\n      man.city = _city;\r\n      man.phone_no = _phone_no;\r\n\r\n      ManAccts.push(_address)-1;\r\n\r\n    }*/\r\n   /* function saveHashcode(address _address, string _hashcode, string _id) public {\r\n\r\n      var man = Mans[_address];\r\n\r\n      man.hashcode = _hashcode;\r\n      man.id = _id;\r\n      ManAccts.push(_address)-1;\r\n\r\n    }*/\r\n\r\n\r\n}\r\n",
  "sourcePath": "E:\\medikeep\\contracts\\Adoption.sol",
  "compiler": {
    "name": "solc",
    "version": "0.4.19+commit.c4cbbb05.Emscripten.clang"
  },
  "schemaVersion": "2.0.0",
  "updatedAt": "2018-03-22T11:46:20.695Z"
}